{
  "contractName": "Election",
  "abi": [
    {
      "constant": true,
      "inputs": [],
      "name": "candidatesCount",
      "outputs": [
        {
          "name": "",
          "type": "uint256"
        }
      ],
      "payable": false,
      "stateMutability": "view",
      "type": "function",
      "signature": "0x2d35a8a2"
    },
    {
      "constant": true,
      "inputs": [
        {
          "name": "",
          "type": "uint256"
        }
      ],
      "name": "candidates",
      "outputs": [
        {
          "name": "id",
          "type": "uint256"
        },
        {
          "name": "name",
          "type": "string"
        },
        {
          "name": "voteCount",
          "type": "uint256"
        }
      ],
      "payable": false,
      "stateMutability": "view",
      "type": "function",
      "signature": "0x3477ee2e"
    },
    {
      "inputs": [],
      "payable": false,
      "stateMutability": "nonpayable",
      "type": "constructor",
      "signature": "constructor"
    }
  ],
  "bytecode": "0x608060405234801561001057600080fd5b5061005e6040805190810160405280600b81526020017f43616e64696461746520310000000000000000000000000000000000000000008152506100b0640100000000026401000000009004565b6100ab6040805190810160405280600b81526020017f43616e64696461746520320000000000000000000000000000000000000000008152506100b0640100000000026401000000009004565b6101d1565b60016000815480929190600101919050555060606040519081016040528060015481526020018281526020016000815250600080600154815260200190815260200160002060008201518160000155602082015181600101908051906020019061011b92919061012c565b506040820151816002015590505050565b828054600181600116156101000203166002900490600052602060002090601f016020900481019282601f1061016d57805160ff191683800117855561019b565b8280016001018555821561019b579182015b8281111561019a57825182559160200191906001019061017f565b5b5090506101a891906101ac565b5090565b6101ce91905b808211156101ca5760008160009055506001016101b2565b5090565b90565b610232806101e06000396000f3fe60806040526004361061004c576000357c0100000000000000000000000000000000000000000000000000000000900463ffffffff1680632d35a8a2146100515780633477ee2e1461007c575b600080fd5b34801561005d57600080fd5b5061006661013e565b6040518082815260200191505060405180910390f35b34801561008857600080fd5b506100b56004803603602081101561009f57600080fd5b8101908080359060200190929190505050610144565b6040518084815260200180602001838152602001828103825284818151815260200191508051906020019080838360005b838110156101015780820151818401526020810190506100e6565b50505050905090810190601f16801561012e5780820380516001836020036101000a031916815260200191505b5094505050505060405180910390f35b60015481565b6000602052806000526040600020600091509050806000015490806001018054600181600116156101000203166002900480601f0160208091040260200160405190810160405280929190818152602001828054600181600116156101000203166002900480156101f65780601f106101cb576101008083540402835291602001916101f6565b820191906000526020600020905b8154815290600101906020018083116101d957829003601f168201915b505050505090806002015490508356fea165627a7a72305820f8884e70f93285b841a53ce6ea8378afe2756bf5fcac73b73cc56e5490ee0e090029",
  "source": "pragma solidity 0.5.0;\n\n//Declare Contract\ncontract Election{\n\t//Model a candidate\n\tstruct Candidate{\n\t\t//uint is \"unsigned integer\"\n\t\tuint id;\n\t\tstring name;\n\t\tuint voteCount;\n\t}\n\t//Store candidates\n\n\t//Fetch candidates\n\t/*mapping in solidity is like an associative array or hash wherewe associate key value pairs with one another.\n\tIn this case the key is the unsigned integer that corresponds to the candidate id and the value will be a candidate structure type.\n\tthat is how we store the candidates. Remember the importance og having it as public is to generate the getter.\n\tIn solidity there is no way to iterate over this mapping or to determine its size*/\n\tmapping(uint => Candidate) public candidates;\n\n\n\t//Store candidate count\n\t/*We will increment the candidatesCount every time we add a candidate. This will help in accessing a candidate \n\tinside a loop.\n\tState variable (without an underscore at the begining); variable accessible inside the contract and represents data \n\tthat belongs to the entire contract */\n\tuint public candidatesCount;\n\n\n\t//Constructor - Will be ran whenever contract is deployed to the blockchain. Note that constructor name is same as contract name\n\tconstructor() public {\n\t\taddCandidate(\"Candidate 1\");\n\t\taddCandidate(\"Candidate 2\");\n\n\t}\n\n\t/*the local variable \"_name\" should be preappended with an underscore.\n\tIt is private because oly the contract should be able to add a candidate. Not that the default for\n\tunsigned integer is one. */\n\tfunction addCandidate (string memory _name) private{\n\t\tcandidatesCount ++;\n\t\t/*First refernce the candidates mapping. Then pass the key of the id of the candidate to be created. Then assign\n\t\tthe new key to the value there. To the struct, the key, name, and vote which is zero is passed. */\n\t\tcandidates[candidatesCount] = Candidate(candidatesCount, _name, 0);\n\t}\n}",
  "sourcePath": "/home/whambuoy/election/contracts/Election.sol",
  "compiler": {
    "name": "solc",
    "version": "0.5.0+commit.1d4f565a.Emscripten.clang"
  },
  "schemaVersion": "3.0.2",
  "updatedAt": "2019-03-11T08:16:30.247Z",
  "devdoc": {
    "methods": {}
  },
  "userdoc": {
    "methods": {}
  }
}